:100000003FC07CC158C057C056C055C054C053C033
:1000100052C051C050C04FC04EC04DC04CC04BC06C
:100020004AC049C048C012010101FF000008C016C3
:10003000DC0500010102000109021200010100803B
:100040000A090400000000000000040309041C0366
:100050007700770077002E00660069007300630068
:1000600068006C002E006400650016034100560015
:10007000520055005300420042006F006F007400B0
:1000800011241FBECFE5D4E0DEBFCDBF10E0A0E657
:10009000B0E0ECEAF7E002C005900D92A436B1079B
:1000A000D9F710E0A4E6B0E001C01D92A03AB10774
:1000B000E1F767D379C3A4CF84E690E080939700FB
:1000C0000B968093960085B7836085BF8BB780645D
:1000D0008BBF08950F931F93CF93DF9360919C0084
:1000E000662309F4A2C0635067FD9DC024E630E09A
:1000F000909196009F5F809199008D3209F074C0B5
:10010000683009F088C0C92FD32F8881807609F024
:100110005EC0109294008981882339F41092950072
:1001200084E990E030E822E047C0853021F48A81FC
:1001300080939D003DC0863049F58B81813019F454
:1001400086E290E004C0823029F488E390E030EC4D
:1001500022E132C0833089F48A81882329F48AE439
:1001600090E030EC24E028C0813029F48EE490E067
:1001700030EC2CE121C0823021F084E990E030ECB9
:100180001AC08AE690E030EC26E116C0883019F4F7
:100190008FE990E00AC0893021F48A8180939F0022
:1001A00007C08A3029F484E990E030E821E004C0F7
:1001B00084E990E030E820E090939B0080939A00DF
:1001C0008F81882359F59E81921748F127C0892F86
:1001D000932F4CD2982F8F3F11F030E820C08881A8
:1001E00087FD9E8130E01BC080917A0087FD13C09F
:1001F000892F932F74D28F3F39F48EE180938B0037
:1002000082E08093610004C0882311F030E004C0D4
:1002100030E09FEF04C030E890E001C0922F3093AF
:100220007A009093600010929C00909160009F3F34
:1002300009F448C08091610087FF44C0192F9930AC
:1002400008F018E0911B9093600080917A0080FD87
:1002500002C00BE401C003EC8F5F80937A00209111
:100260009A0030919B0086FD05C0D901912FECE8E2
:10027000F0E011C0ACE8B0E080E090E006C0F90129
:10028000E80FF91FE491ED9301961817C1F705C027
:100290008D91819391509923D9F7F901E10FF11DC7
:1002A000F0939B00E0939A008CE890E0612FCCD112
:1002B000183019F08FEF8093600000938B001C5F63
:1002C0001093610080B3857019F010927B0011C00B
:1002D00080917B00882369F494E680B3857049F4AB
:1002E0009150D9F781E080937B0010929D0010928D
:1002F0009800DF91CF911F910F9108950F930FB741
:100300000F93809BFECF809B06C0809B04C0809B88
:1003100002C0000000C01F933F932F9331E014E010
:1003200000B3102710FD32E0102F3A95C9F700FDF9
:10033000E5C000B3102717952FE72795DF9310B37B
:10034000012707952795CF93C091970000B31027F9
:10035000179527953BE0D0E04F9310B30127079501
:1003600027954FEF000055C0809BFECF809B06C0B5
:10037000809B04C0809B02C0000000C0DF9100C0D1
:10038000CDCF10B3157079F1407C2C6F13C000B342
:10039000057049F141782C6F15C0057021F1102FBF
:1003A0002C6F00B319C000B30570E9F04E7F2C6FBD
:1003B00018C038F300B30570B1F0102717952795D2
:1003C000243028F310B30127079527954227499336
:1003D0004FEF00B3243008F31027179527952430EA
:1003E00010F310B31570E1F101270795279524301C
:1003F000F0F000B30570A1F1102717952795243070
:10040000E0F010B30127079527953A9541F1243084
:10041000D0F000B3057021F11027179527952430EF
:10042000C0F010B30127079527952430C2CF10B331
:100430001570B1F04C7F2C6FDCCF00B3057081F0EC
:10044000487F2C6FDECF10B3157051F0407F2C6FBA
:10045000E0CF00B3057021F0407E2C6FE2CF3BC0AF
:100460003C2FC09197003C1B00E433300ABF98F149
:1004700008811981412F1F77209198000D3279F161
:10048000013E69F10936C1F00777033421F5109177
:100490009E00112301F100919C000030C1F5343021
:1004A000CAF130939C001093990000919600C0937C
:1004B0009600009397002EC0121769F430916100E6
:1004C0003F3F29F10FEF00936100CBE8D0E025C05A
:1004D000002700939E004F91CF91DF910FC012171C
:1004E000B9F700939E000FEF009360000093610046
:1004F0004F91CF910AB706FD37CFDF9100E40ABFD5
:100500002F913F911F910F910FBF0F911895C3E647
:10051000D0E002C0C2E6D0E032E05F9302B30A7FCF
:10052000016002BB55E011B3156011BB20E80FC09C
:10053000052710E002BB10C0052710E0089402BB9D
:1005400013C0052710E015C0052710E019C020FFD3
:10055000052702BB279517951C3F50F720FF05275D
:10056000279502BB17951C3F38F720FF05272795D5
:10057000179502BB1C3F28F720FF052727951795E5
:100580001C3F02BB08F700C0499120FF052702BBB2
:10059000279517951C3F80F520FF0527279502BB5F
:1005A00017951C3F68F520FF05272795179502BB77
:1005B0001C3F58F520FF0527279517951C3F02BBC8
:1005C00038F5242F3A9519F60A7F5F9102BB32E085
:1005D0003A95F1F710919D00C556D04011F0109357
:1005E0009800016011B31A7F02BB0A7F4F91CF912F
:1005F00011BB02BBDF9182CF052710E002BBCACF3F
:10060000052710E0089402BBCDCF052710E0CFCF1F
:10061000052710E0D3CFA82FB92F8FEF9FEF41E030
:1006200050EA615070F02D9138E0722F782796953E
:100630008795269570FF02C0842795273A95A9F7DC
:10064000F0CF809590950895E6DF8D939D93089562
:10065000F89481E180935700E89581E08BBF1BBE41
:10066000E0917C00F0917D0009950895FC01818165
:10067000813011F4EDDF23C08230F9F481E0809302
:100680007E00938180E02281E22FF0E0E82BF92BBD
:10069000F0938800E093870010928A0010928900FE
:1006A000E199FECFF89483E080935700E895789421
:1006B00007B600FCFDCF2FEF0AC0833011F020E019
:1006C00006C010927F0080E48093800022E08FE7D4
:1006D00090E090939B0080939A00822F0895FF9260
:1006E0000F931F93CF93DF938C0180917E00813015
:1006F00011F08FEF40C0C0918700D09188004091E9
:10070000890050918A00DA01AC0FBD1F70E0FF2410
:10071000F3942AC0F894F801E70FF11D318120E02D
:10072000808190E0822B932BFD010C01F092570009
:10073000E895112478944E5F5F4F1296403451052E
:1007400090F050938A0040938900F89485E0FE0170
:1007500080935700E895789407B600FCFDCF10927F
:100760007E0081E008C07E5F7617A0F250938A0079
:100770004093890080E0DF91CF911F910F91FF900E
:1007800008958FEF88BB17BA85BB14BA8AEF82BB76
:1007900082E081BB9A995CDF81E08BBF82E08BBFF6
:0C07A0008BDC789497DCFECFF894FFCF40
:0407AC00FFFFD25A1F
:00000001FF
