:0600000021C0FECFFDCF80
:10000600FCCFFBCFFACFF9CFF8CFF7CFF6CFF5CFAE
:10001600F4CFF3CFF2CFF1CFF0CFEFCFEECFEDCFDE
:100026003132333435362020200001002D4E414E2A
:1000360000494E4600000100600130000000F894BF
:10004600EE27ECBBF1E0FBBFEBBFE5BFF8E1F1BD8E
:10005600E1BD8DE0A2E0BB27ED938A95E9F780E04C
:1000660094E0A0E6ED930197E9F7ECE3F0E08591E3
:100076009591009761F0A591B59105901590BF01F6
:10008600F00105900D920197E1F7FB01F0CFEFE546
:10009600EDBFE4E0EEBFC0E6D1E082C0AA93E881FE
:1000A600E7B983E08A95F1F7369A349BFECF349A06
:1000B600E4B1F5B121960895AA938DD100E010E040
:1000C600EA81F0E0E033A0E0FA0719F40FE310E06C
:1000D6003EC0E133A0E0FA0719F406E010E037C0AD
:1000E600E233A0E0FA0719F40BE510E030C0E33381
:1000F600A0E0FA0719F40FE410E029C0E433A0E009
:10010600FA0719F406E610E022C0E533A0E0FA0784
:1001160019F40DE610E01BC0E633A0E0FA0719F467
:100126000DE710E014C0E733A0E0FA0719F407E082
:1001360010E00DC0E833A0E0FA0719F40FE710E06D
:1001460006C0E933A0E0FA0711F40FE610E0F80163
:1001560045D123960895BA93AA933DD100E010E0C5
:10016600AA98AA81BB81AC91CBD0CED0AA9AAB98E3
:10017600EA81FB81A181C4D0C79AC6D0AB9AAC985C
:10018600EA81FB81A281BCD0BFD0AC9AAD98EA814E
:10019600FB81A381B5D0B8D0AD9A20D1249608951D
:1001A6002A978AE0A0E0B0E0E6E2F0E01AD100E0AB
:1001B60010E0E0E0E8BBEFEFE7BBE0E0E5BBECE337
:1001C600E4BBE0E0E2BBEFE0E1BBE0E0E3BFE2BFBF
:1001D600EFBDEEBDEDBDECBDE7BDE6BDEBBDEABDD9
:1001E600E9BDE8BDE2BDE5BDE4BDE3BDE5BFE9BFF0
:1001F600EAB9E0E8E8B9E0E0E0BFE7B9E1E8E6B986
:10020600E5E8E6B9E0E0EDB9E6BF2897A1E046DF0C
:1002160066277727EC83FD836E837F83A0E5B3ECA7
:1002260080E090E0B2D0CED0C8D0EAE082D08F0194
:10023600093DEEE01E0714F0909805C00031EEE08F
:100246001E070CF4909A1A930A93DE011A961ED092
:10025600DE01189649D0349748F4EA85EB87E9859C
:10026600EA87E885E987E0E3E887F2CFDE011896BA
:1002760072DFE0E08199E1E0A1E0A9D0EA1B11F488
:10028600919801C0919A2896C0CFFFCFBA93AA93AE
:10029600A991B991E991F99130962AF4E095F095F2
:1002A60031966DE26D93E89480E197E20DD088EE89
:1002B60093E00AD084E6992707D08AE005D06E2F0E
:1002C60010D066276C9308956627E817F90720F083
:1002D6006395E81BF90BC9F7662311F416F0089528
:1002E6006894605D6D930895BA93AA93A991B991A4
:1002F600EE27FF276D91662311F03196FBCF089507
:10030600DBDE8F0108BB0895AAE0B0E000C01096BE
:1003160039F08AEF90E00197F1F7A8951197C9F7A0
:100326000895F09560957095E195FF4F6F4F7F4F5B
:100336000895EE230E2EFD01BC0131F075956795EB
:10034600F795E7950A94D1F708957A9F702D6B9FDC
:10035600700DF89F700DE99F700D6A9F602D710DED
:10036600FB9F600D711DE89F600D711D8827FA9F28
:10037600F02D610D781FEB9FF00D611D781FEA9F30
:10038600E02DF10D681F781F089504D0DEDF0EF40E
:10039600C8DF0895E89477FF02C0C3DF689497FF2B
:1003A6000BC00024A095B095809590951196801D60
:1003B600901D00F8039400FA0895A881B9818A81F6
:1003C6009B810895E883F9836A837B8308951A2EB7
:1003D600AE2FE12D08951A930A9308951981088185
:1003E6000895AC0FBD1F05900D928A95E1F708950B
:00000001FF
