:1000000037C065C14FC04EC04DC04CC04BC04AC088
:1000100049C048C047C0040309041A0377007700A9
:1000200077002E006F0062006400650076002E00ED
:1000300061007400180350006F00770065007200C3
:10004000530077006900740063006800120110011A
:10005000FF000008C016DC050001010200010902D2
:100060001200010100C00A090400000000000000A5
:1000700011241FBECFEDCDBF10E0A0E6B0E0E6ED4D
:10008000F6E003C0C89531960D92A236B107D1F7BC
:1000900010E0A2E6B0E001C01D92A839B107E1F777
:1000A00063D217C3ADCF85B7826085BF8BB780643D
:1000B0008BBF08951F93CF93DF9390917E00935051
:1000C00097FD8EC020917B0080917A008D3209F0DF
:1000D00085C0983009F082C0CCE0D0E0C21BD109C5
:1000E000CE57DF4F83EC80936E008AE580936000EB
:1000F000109262009881892F807629F08C2F9D2F95
:1001000075D2282F62C02A811092770089818823B6
:1001100049F49F7119F481E0809377001092780080
:1001200022E04DC0853019F420937F0047C086300F
:10013000B1F58B81813019F48CE490E004C08230F9
:1001400041F48EE590E090937D0080937C0022E165
:1001500022C08330F9F48A81882341F486E190E05B
:1001600090937D0080937C0024E015C0813041F4A1
:100170008AE190E090937D0080937C002AE10BC09F
:10018000823041F484E390E090937D0080937C0082
:1001900028E101C020E080E48093620016C088302E
:1001A00021F421E081E890E00CC0893019F420931B
:1001B000810004C08A3011F421E001C020E087E70B
:1001C00090E090937D0080937C008F81882321F4C0
:1001D0008E81821708F4282F2093610010927E00F0
:1001E0008091600084FF4CC0809161008F3F09F4D2
:1001F00047C0182F893008F018E0811B80936100F8
:1002000080916E0098E8892780936E00112359F140
:1002100020917C0030917D008091620086FF0FC0AC
:10022000AFE6B0E080E090E0E22FF32FE80FF91F97
:10023000C895E02DED9301961817B1F709C0912FDD
:10024000A22FB32FEFE6F0E08D9181939150E1F76B
:100250001150812F90E01F5F0196820F931F9093A2
:100260007D0080937C008FE690E0612F2CD0612F81
:100270006C5F6C3019F08FEF8093610060936000C9
:1002800094E186B3837031F49150D9F710927F00D6
:1002900010927900DF91CF911F910895A82FB92F67
:1002A00080E090E041E050EA609530E009C02D9197
:1002B00082279795879510F084279527305EC8F39D
:1002C0006F5FA8F30895EADF8D939D930895CF9310
:1002D000CFB7CF93C395B09BE9F7B09B09C0B09B54
:1002E00007C0B09B05C0B09B03C0B09B01C0A1C0BC
:1002F000DF93C0917B00DD27CE57DF4FB09B02C05C
:10030000DF91EBCF2F930F931F9306B32FEF00FBDB
:1003100020F94F933F9316B34FEF012700FB21F9CC
:100320003BE031C04E7F012F16B3216028C0102F53
:100330004D7F2260000006B329C04B7F2460012F4F
:10034000000016B32BC016B3477F28602AC04F7E2B
:1003500006B320612CC04F7D16B320622FC04F7BA7
:1003600006B3206432C0422706B349934FEF000022
:10037000102710FB20F916B31370C9F1297F91F2F1
:10038000012700FB21F906B3237F89F2315058F190
:10039000102710FB22F916B3277E79F2012700FB04
:1003A00023F92F7C81F206B3102710FB24F92F7953
:1003B00071F200C016B3012700FB25F92F7359F223
:1003C00000C006B3102710FB26F9223040F200C00F
:1003D00016B3012700FB27F9243028F64F77206851
:1003E00016B30000F9CF10E41ABF002717C03B5026
:1003F0003195C31BD04010E41ABF0881033CE9F0DB
:100400000B34D9F0209179001981110F1213EDCF1F
:10041000093641F10D3211F0013E39F700938000A9
:100420003F914F911F910F912F91DF91CAB7C6FD58
:1004300051CFCF91CFBFCF9118952091800022232B
:1004400079F310917E00112311F5343012F13093BD
:100450007E0020937A0010917B003BE0311B3093AB
:100460007B0017C000917E0001308CF40AE53091CA
:10047000600034FD10C000936000CEE6D0E00FC0F5
:100480002795A8F45150A9F4220F0000F9CF4AE5AE
:1004900003C042ED01C0432FC4E1D0E032E017B306
:1004A0001360C09A17BB08B320E413E05F930127E1
:1004B00056E008BB279520F4515021F4220FF9CFC4
:1004C000012756E000003B5A08BBD0F2279528F4DC
:1004D000515029F4220F0000F9CF012756E027954B
:1004E00008BB20F4515021F4220FF9CF012756E028
:1004F0002991332308BB21F60C7F10917F00110F47
:10050000C651D04008BB11F01093790010E41ABF17
:10051000016017B31C7F402F4C7F5F9100C000C06B
:1005200008BB17BB48BB7CCF85E290E0BDD0382F1D
:10053000E6E6F0E020E091E080818111292B319600
:1005400080E0EE36F80711F0990FF6CF232788B335
:10055000922F9C7F8370982B98BB82B32295207337
:100560008F7C282B22BB08951F932EE088E190E01A
:100570000FB6F894A89581BD0FBE21BD8BEF81BB4E
:1005800012BA18BA8CEF87BBCFDFB89A20E040E7E9
:1005900057E105C0A895842F952F0197F1F72150B9
:1005A000C9F7B89885E083BF7EDD789418E0A895F8
:1005B00081DD08B601FEFBCF88B7826088BF8091DD
:1005C00063008150809363008F5F89F7109363000D
:1005D000E6E6F0E08081882311F081508083319637
:1005E00080E0EE36F807B1F79FDFE1CFCF93DF93DE
:1005F000C82FD92F85E290E057D0482F84E690E0AD
:1006000090937D0080937C003981332339F48A8173
:10061000809364008B818093650014C03130A1F415
:1006200040936400E6E6F0E020E091E080818111F3
:10063000292B319680E0EE36F80711F0990FF6CFAE
:100640002093650082E02DC0832F8250823038F5E0
:100650002C812770E22FF0E081E090E0682F01C04C
:10066000660F2A95EAF7862F8423323031F4642B03
:1006700020E0882329F421E003C060956423282F1B
:100680008A81882339F4EA59FF4F108285E290E08D
:1006900013D005C0222319F0EA59FF4F808344DFAD
:1006A00080E0DF91CF910895E199FECF1FBA8EBB14
:1006B000E09A99278DB30895262FE199FECF1FBAAE
:1006C0008EBB2DBB0FB6F894E29AE19A0FBE01964D
:0606D0000895F894FFCF2D
:0206D6005AFFC9
:00000001FF
