:0A000000F4C0FECFFDCFFCCFFBCF14
:10000A00FACFF9CFF8CFF7CFC4C1F5CFF4CFF3CFFA
:10001A00F2CFF1CFF0CFEFCFEECFEDCF805101008D
:10002A00100E00003C000000010000001027E80349
:10003A0064000A00010000100001100001006800BD
:10004A006E007E008E009C00AC00B900C4003939F5
:10005A002032343A36303A36300000000F00436C12
:10006A006F636B004D61782054656D7065726174C1
:10007A00757265004D696E2054656D7065726174A4
:10008A0075726500526F746174696F6E2054696D80
:10009A006500526F746174696F6E20506572696F82
:1000AA00640053797374656D20436865636B0061FE
:1000BA00646A2054656D702E310061646A2054654B
:1000CA006D702E3200253264202532643A2532645E
:1000DA003A253264200020202020202020202020C1
:1000EA0020202020202000204300523A4F4646205C
:1000FA0000523A4C45462000523A5249472000489D
:10010A003A4F462000483A4F4E20004F4B206F721C
:10011A002043414E43454C00486561746572204F47
:10012A004E00486561746572204F464600726F74CE
:10013A006174696F6E204C65667400726F746174C5
:10014A00696F6E20526967687400726F74617469AE
:10015A006F6E204F666600496E76616C6964206B2B
:10016A006579000001002D4E414E00494E460000BF
:10017A0080C01000EC01480003006001F100070094
:10018A006301F40007006A01FB0007007101020124
:10019A0006007801090106007E010F010D008401A5
:1001AA0015010A00910122010B009B012C010E008E
:1001BA00A60137010F00B40145010D00C301540126
:1001CA000C00D00161010C00DC016101040008008F
:1001DA0064000100FC016E01020000027A010000C5
:1001EA00F894EE27ECBBF1E0FBBFEBBFE5BFF8E10B
:1001FA00F1BDE1BD8DE0A2E0BB27ED938A95E9F759
:10020A0080E094E0A0E6ED930197E9F7ECE7F1E0EE
:10021A0085919591009761F0A591B59105901590FA
:10022A00BF01F00105900D920197E1F7FB01F0CFB4
:10023A00EFE5EDBFE4E0EEBFC0E6D1E014C1A9D618
:10024A00269716DBEE85FF8568897989A5D6B2D609
:10025A00B4D6A2D6AF01B1D6BAD6BED64DDA9F0170
:10026A00BBD645DAB4D60E811F81EC85FD85BDD695
:10027A00EFECF0E0BAD6F801BBD6F901B9D6FA012B
:10028A00B7D6EA8DFB8DB4D680E19ED46496F7DAB0
:10029A00629608957ED62497AED6B1D69EDAB2D6A5
:1002AA00B4D67F936F93FF93EF93B2D6B4D6B6D6F4
:1002BA00DF01F001A7D6AF91BF918F919F91A5D68B
:1002CA0001D97F936F93FF93EF93ACD6A4D693D6BD
:1002DA00DF01F00197D699D6AF91BF918F919F9187
:1002EA003FD97F936F93FF93EF9398D6AF91BF91C6
:1002FA008F919F918AD66BDA8ED897D698D65DDA87
:10030A00E2E0EA93A985BA85B5D428960895AA9316
:10031A0090D6A0EEB0E09ED58CD6D6C52C978CE0B0
:10032A00A0E0B0E0E8E5F0E0B4DAE091E801F091AD
:10033A00E9016091EA017091EB017FD682D6A0E0D3
:10034A004BD582D67A926A9281D6A0E6B1E074D56C
:10035A0078D680D62C9608957FD6E92D7FD619F4C3
:10036A00A3E6B1E009C07DD619F4AAE6B1E004C05B
:10037A007CD619F4A1E7B1E05FD5E82D6FD619F460
:10038A00A8E7B1E004C06DD619F4AEE7B1E054D5E0
:10039A0008956A937A93AA93BA93EA93FA93EFB772
:1003AA00EA93F20131962F01E2E1F0E0E415F50556
:1003BA0044F4F20172972F01A8EEB1E0D6D959D6CA
:1003CA00D9D9E7E2E2BFE991EFBFF991E991B99191
:1003DA00A991799169911895AA93E881E064E7B99E
:1003EA008BE18A95F1F7369A349BFECF349AE4B1C1
:1003FA00F5B16AC541DA10E0E3B340D635D9E095E4
:10040A00EF700E2FF501A02F3BD6EA17FB0711F468
:10041A0010E001C0102FA02EBB24E12F37DA089577
:10042A00AA938880E881E03011F4919801C0919AEA
:10043A004BC5AA93E881E91529F092989398A8EEFA
:10044A00B3E040D7E8810AD619F49298939809C084
:10045A0008D619F4929A939804C007D611F4929880
:10046A00939A988031C500E010E0A0E0B0E0E0E0A7
:10047A00F0E0D6D9A2E0B0E005D6D2D9C9D5E4EFEA
:10048A00F1E0CED9CFD5E0E0F4E0CAD9FED5E9E46F
:10049A00F0E0C6D9FDD5EBE4F0E0C2D9FCD5EEE137
:1004AA00F0E060E070E0B4D9F9D5ECE3F0E060E0A8
:1004BA0070E0AED9E0E0E8BBE7EFE7BBE8E7E5BB11
:1004CA00E0E0E4BBE2BBEFEFE1BBE5E0E3BFE7E27C
:1004DA00E2BFE0E0EFBDEEBDEDBDECBDE7BDE6BDC0
:1004EA00EBBDEABDE9BDE8BDE2BDE5BDE4BDE3BDE6
:1004FA00E5BFE1E0E9BFE0E0EAB9E0E8E8B9E0E059
:10050A00E0BFE0E4E7B9E2E8E6B9E0E0EDB9E6BF6A
:10051A00A0E1B2D46ED47894C4D56697909B02C0F9
:10052A00909801C0909AA0E057DF3F01B1D560D9F9
:10053A00E615F70514F4A0E006C0A7D559D96E163A
:10054A007F0614F4A1E06CDFAED5DF01CB0185D9BB
:10055A0034F0A4D5E0E1FEE060E070E059D92497D8
:10056A00A2D5A4D5C9D8EA83FB839DD59FD5BFD888
:10057A00E170F070E883F9838ED536D9A0D580D89A
:10058A0072D94CF4E881F981309711F4A2E001C0E4
:10059A00A1E04FDF02C0A0E04CDF24962BDFED8BF9
:1005AA00F801309741F4BADED7DEAD89A13011F4F3
:1005BA0089D58BD5C3C155D591F58AD5EC89ACEED1
:1005CA00B1E05CD5EE0FFF1FAE0FBF1FCAD8DF0127
:1005DA0041D480D561F4EC8951D53196AAE0B0E0D6
:1005EA005CD88F0172D579D5AFE0EAD317C03DD573
:1005FA0021F400E010E055D511C075D549F4EC8915
:10060A00E03011F4E7E002C0EC89E150EC8B06C05F
:10061A006ED521F470D5A83008F057D58FC1EA30CD
:10062A00A0E0FA0751F554D56BD507D50DD56FD58E
:10063A0051D579F460D5A43008F047D561D5E09357
:10064A00E801F093E9016093EA017093EB0145D563
:10065A0013C00BD521F439D535D523D50DC043D5D3
:10066A0019F45CD563D504C042D531F457D565D5A4
:10067A00E88BF98B6A8B7B8B61C1E431A0E0FA07C6
:10068A0001F526D561D5B1D4E1D424D539F463D5A1
:10069A00E0D819F059D5FCD4C3D802C0E6D429F45D
:1006AA0011D5E1E0EC8BFDD40BC01DD511F458D562
:1006BA0003C01DD529F456D5E88BF98B6A8B7B8B41
:1006CA003DC1EE31A0E0FA07F9F402D550D58DD438
:1006DA00BDD400D539F452D519F049D5D6D4A0D80D
:1006EA00FCD402C0C2D421F4EDD4E2E0EC8B0BC0FE
:1006FA00FAD411F435D503C0FAD429F433D5E88BEA
:10070A00F98B6A8B7B8B1AC1E832A0E0FA0729F5CC
:10071A00DFD437D592D498D4FAD4DCD459F4EBD4B4
:10072A00A43008F0D2D42AD519F02BD5B4D470D875
:10073A00D4D412C09AD419F4E3E02BD50DC0D3D483
:10074A0019F4ECD4F3D404C0D2D431F4E7D4F5D4F8
:10075A00E88BF98B6A8B7B8BF1C0E233A0E0FA0756
:10076A0039F5B6D4A0D417D568D46ED4D0D4B2D4BF
:10077A0061F4C1D4A43008F0A8D400D521F093D4F0
:10078A000AD58CD445D8A9D412C06FD419F4E4E0A0
:10079A0000D50DC0A8D419F4C1D4C8D404C0A7D4B4
:1007AA0031F4BCD4CAD4E88BF98B6A8B7B8BC6C074
:1007BA00EC33A0E0FA07E9F5E0E0E2BB4DD4F1D46E
:1007CA00A4E8B1E039D386D4F1F4EBD4A1E9B1E0DD
:1007DA0033D3A1E0E8D4ABE9B1E02ED3A0E0E3D46F
:1007EA00A6EAB1E029D3A1E0E3D4A4EBB1E024D393
:1007FA00A2E0DED4A3ECB1E01FD3A0E01ADEA0E1B0
:10080A00B7E260D502C031D419F4E5E0C2D410C011
:10081A006AD431F416D4A0E0DFD2A0EDB1E007C06B
:10082A0066D431F40ED4A0E0D7D2ACEDB1E004D353
:10083A0085C0E634A0E0FA0709F03FC049D4A0E039
:10084A00B0E0E9D3BAD4109711F4B9D401C01AD4DC
:10085A00B9D4E8E0BED4CFD30F01AFD4119711F4C5
:10086A00AED401C00FD4AED4B6D434D4A9F486D44D
:10087A0069F0EC89E03029F4D1D3B2D4A0E0B0E039
:10088A0004C0B9D3ADD4A2E0B0E0CAD734D4A23000
:10089A0008F01BD422D410C0E8D319F4E6E079D4C6
:1008AA000BC021D411F45CD403C021D429F45AD446
:1008BA00E88BF98B6A8B7B8B41C0E035A0E0FA07A5
:1008CA00E9F506D4A5D3A7D378D4109711F477D431
:1008DA0001C0D8D377D4E8E07CD4A4D39CD36DD418
:1008EA00119711F46CD401C0CDD36CD474D4F2D363
:1008FA00A9F444D469F0EC89E03029F489D378D793
:10090A006FD486D304C08ED373D76AD48BD388D7D7
:10091A00F2D3A23008F0D9D3E0D310C0A6D319F489
:10092A00E6E037D40BC0DFD311F41AD403C0DFD307
:10093A0029F418D4E88BF98B6A8B7B8BA8EC55D4F5
:10094A006696EBCDFFCF25D397D7B9D3129609D7A1
:10095A003097F1F0B4D34BD48F01309761F0023065
:10096A00E0E01E07A0F0F80131978F01AA81BB8150
:10097A001496ED93FC93A3D312963CD43197AC8191
:10098A00A0839DD3EED6FF2312F099D333D405C0AA
:10099A0096D3EFEFFFEFED93FC9375D72596089565
:1009AA00F8D2269765D710E0AC85BD856BD3ED9359
:1009BA00FC93EA89FB893196EA8BFB8B3197E491A8
:1009CA002E2FE03009F4FAC0E12FE03031F425325D
:1009DA0011F411E001C014D4F0C0E130A1F42532C1
:1009EA0011F40ED4E9C012E040E000E02D3211F417
:1009FA0001E0E3C02B3211F44BE2DFC0203211F4E4
:100A0A0040E2DBC002C0E23039F450E013E02033A8
:100A1A0011F40068D2C003C0E33009F0CEC020331D
:100A2A0010F02A3308F007C0AAE05A9F502DE22F8F
:100A3A00E0535E0FC2C0E22FE33631F4E8D3BFD3EE
:100A4A00A481AA93E9D3B8C0E33741F4E0D3EAD347
:100A5A00EE83FF83D4D246D21E2F09C0E03759F461
:100A6A00D6D3E0D3E2D3CBD248D21E2F086002609D
:100A7A000F7730E02EC0E43611F0E93611F4046045
:100A8A0002C0E53729F4E6E3F0E0CFD315E00BC066
:100A9A00E83511F4086003C0E83709F08DC0E0E4D6
:100AAA00F0E0C3D314E002FF11C0B1D3BBD382D2AA
:100ABA00AB85AA232AF4EA85FB85C5D57BD24DE20C
:100ACA00403011F01F5F01C00B7F03C0A0D3AAD32F
:100ADA0071D200FD10C0151770F407FF08C002FF9D
:100AEA0004C00B7F242F115001C020E301C020E273
:100AFA0087D35150F0CF312F01FF12C0303079F037
:100B0A0003FF04C095D3259190D303C078D22D91C9
:100B1A0092D376D3503009F051503150EFCF43C0C1
:100B2A0020E386D32CD6E887F98782D332967DD301
:100B3A00E885F985AA85BB85AE17BF0740F02F5F08
:100B4A00A885B985EA85FB855DD234D2F1CF2A33EF
:100B5A0028F003FF02C0295F01C0295D04FD19C006
:100B6A00213320F4A885B985119709F409C05317D0
:100B7A0010F000FF01C011C020E207FF0AC020E305
:100B8A00006102FF06C00B7F4A9346D3503009F03A
:100B9A00515036D3503009F051503150A885B9859B
:100BAA00129708F0BDCF00FF07C0503029F051500E
:100BBA00E0E2EA9331D3F9CF10E0FBCEAC85BD85F4
:100BCA00D0D55DD664960895FF92F82E269752D610
:100BDA0035D3309719F4EFEFFFEF1BC0DE011696FD
:100BEA0024D58D012BD321D3E0E0E887E987DE0104
:100BFA001A961BD5B6D5F9D11A930A93E8EAF4E006
:100C0A00F4D1DE011A96CCDE9F01F9D1E0E0EC9333
:100C1A00F90137D62A96FF900895BBD1A991B991C7
:100C2A00E991F99130962AF4E095F09531966DE2C2
:100C3A006D93E89480E197E20DD088EE93E00AD0B4
:100C4A0084E6992707D08AE005D06E2F10D0662750
:100C5A006C9308956627E817F90720F06395E81B57
:100C6A00F90BC9F7662311F416F008956894605DCC
:100C7A006D9308958ED12497E0E0E883E983EA83AF
:100C8A00EFE3EB83F9D5EB85FC85EF3FAFEFFA078E
:100C9A0031F4CED2AAD1A0E7B1E018D17AC0EF3FA1
:100CAA00AFE7FA0731F4C4D2A0D1A1E7B1E00ED17F
:100CBA0070C0AC85AA2332F4C6D20ED3C9D2CDD223
:100CCA00EDE2EC93A885A73010F0E6E0E8871885F6
:100CDA00E12F1150E03021F0C5D2C9D2CED2F8CFDF
:100CEA00D1D2A0D3B5D210E0E0E0F0E060E87FE333
:100CFA00C4D2C8D27AD468F0B5D2CDD2BED21F5FE0
:100D0A00173230F095D271D1A5E7B1E0DFD041C0FA
:100D1A00F0CF103021F4A1D2E0E3EC931DC0E12F13
:100D2A001150E030C9F09ED2A2D2A0E0B0E080E03B
:100D3A009FE378D3DF01CB011CD19FD2A3D210D479
:100D4A00FED20E2F8AD2ADD28DD25FD1BBD3AED214
:100D5A003ED561D37DD2E3CFE885E030B1F07DD2D4
:100D6A00EEE2EC93E885E150E887EF5F71F09ED2FE
:100D7A0092D26ED268D2E3D20E2F6FD292D296D28C
:100D8A0044D125D548D364D2EDCFAE81BF81E0E00E
:100D9A00EC9379D52D960895AA93E8B3EF70AE2F08
:100DAA00E881E07FEA2BE8BB85E08A95F1F7C29AF1
:100DBA008DE08A95F1F7C2988DE08A95F1F784C0A3
:100DCA00AA93A881E9DFE881E295E883A881E4DFB4
:100DDA0085E88A95F1F778C0AA93E8814FD1E05067
:100DEA00FE4FE081A981AE0FEBDFD980C880229641
:100DFA000895A2E0E5DFA3E0F8D153D1A1E0E0DF56
:100E0A00A3E0F3D1E0E0CE2EDE2E0895AA93A881C6
:100E1A00AA3021F0E0910402DE1640F012D1C39408
:100E2A00AC2DDADFA881AA3009F44EC0D394C09A57
:100E3A00A881C6DFC09848C0ACD01A93A981BA81EC
:100E4A00ED91A983BA831E2FE03019F0A12FDEDFBE
:100E5A00F5CF0FC09ED01A93E981FA813196E983C2
:100E6A00FA833197E4911E2FE03019F0A12FCEDFDB
:100E7A00F3CF188123960895AA93E7B3E06FE7BBEF
:100E8A00BA9AB89AB99AC298C098C198E881E09378
:100E9A000402E058E0930202E881E054E09303027E
:100EAA00A4E1A3D108D207D206D2A0E275DF88EC6A
:100EBA0090E00197F1F7A8E283DFA4E081DFA5E8DB
:100ECA007FDFA6E07DDF95DF2196089562D0E99164
:100EDA00F991A991B991CD0105900D920020E1F700
:100EEA00FC01089556D0A991B991EE27FF276D917B
:100EFA00662311F03196FBCF08954BD0AA27BB2762
:100F0A00E991F9910590002011F01196FBCFFD01AE
:100F1A00089558D47B816A81F981E88177FB770F3C
:100F2A0067FD7160972F9E5781F078F0983190F4A1
:100F3A00AA27BB27882708948795B795A7959A95D6
:100F4A00D1F7EA23FB23682305C0E8947727EE2725
:100F5A00FF2766276F77769508F4606877F9A99175
:100F6A00B99189919991EA17FB076807790797FB65
:100F7A00089528D418D4CDDF58D011F458D007C01A
:100F8A00EEF755D0A0E0B0E080E89FE344D2249683
:100F9A000895BA93AA930895EE83FF8368877987A1
:100FAA00AE81BF8188859985ECE3F0E060E070E06E
:100FBA00A3D30895EA87FB870895AE81BF81888508
:100FCA009985ECE3F0E060E070E091D30895EE8358
:100FDA00FF83688779870895AE81BF81888599855F
:100FEA00E8E1F0E060E070E00895FA93EA9308958A
:100FFA0042D3E3D30895A2E0B0E0FAD30895AE81D4
:10100A00BF810895EA1BFB0B089535D3D1D108950A
:10101A00A4E0B0E00895ECD30F010895A0E0B0E099
:10102A00E7D30895A6E0B0E00895C2D30895B6D3F1
:10103A000895E0E0EA93A981CFCEBFD3DE011496EA
:10104A00FEC8E0E0EA930895DE01F6CEDE011296CC
:10105A0021D9FACFA1E0C0CEA1E059C9F0E030977A
:10106A000895E130A0E0FA070895E230A0E0FA0717
:10107A000895EF5FFF4F6F4F7F4F0895F0E0089597
:10108A00B0E00895E0E0F0E00895A8E0B0E0089547
:10109A00AAE0B0E00895ACE0B0E00895A0E1B0E0C5
:1010AA000895ACE08DCEFADF9FD30895A091E801B0
:1010BA00B091E9018091EA019091EB010895AA812A
:1010CA00BB81089501E010E00895E0E0EC8B0895FB
:1010DA0025D9C2CFED89D2DFC4CFE0E0E88BE98B16
:1010EA00EA8BEB8B0895E430A0E0FA070895E83024
:1010FA00A0E0FA070895EC89EF5FEC8BAC890895BC
:10110A00E889F9896A897B89D1DF93D20895EC89C4
:10111A00A3E0EA02F001EF5FEA939CCFEC89A6E232
:10112A00B0E0ACDF9CD2EA0FFB1F08952CD3A8894C
:10113A00B9898A899B897DD208952BD3E889F9894F
:10114A006A897B897BD20895A3DF52D3A889B9899A
:10115A00EA0FFB1F0895E889F9896A897B8908954E
:10116A00FADF87CFF8DF31976040704008958DDF4E
:10117A003FD3A889B989EA0FFB1F0895ECDF69D329
:10118A00089589DF31D3A889B9898A899B8951D27F
:10119A000895EC8B97CFA889B9898A899B8949D206
:1011AA000895A0E0B4C83CD9A0E1B7E28BD0F9CF4A
:1011BA0040D9A0E1B7E286D0F4CFAC8961CFE88903
:1011CA00F9890895E00DF11D10DFDE01129625DD83
:1011DA003BCFEA933FCFEC89EE0FEE0FEE0FF9CF3C
:1011EA00A889B989EA0FFB1F08954ADF6BC01496D4
:1011FA00B8D20895ED91FD913196FE93EE9308953C
:10120A002A93AD85BE85EF85F88909950895D7DFBC
:10121A003497E88BF98B0895AD85BE85EF85F889FB
:10122A0009950895A889B989E2CFEE83FF830895C5
:10123A00EE81FF810895AE83BF830895DE011C9677
:10124A00F4D18FD20895E985FA856B857C85089556
:10125A00E987FA876B877C870895D1DE1196EBDFE1
:10126A0011970895AA81BB818C819D810895EDEC27
:10127A00FCEC6CEC7DE326D10895EA83FB836C8356
:10128A007D830895EA81FB816C817D81A985BA8578
:10129A008B859C850895E0E0F0E060E271E412D16C
:1012AA000895E02FE05DEC93E02FE8CEA985BA859A
:1012BA008B859C850895A0E36FDD88EC90E001970B
:1012CA00F1F70895109639F080ED97E00197F1F75C
:1012DA00A8951197C9F7089530976040704009F0B2
:1012EA0070580895552342F4503811F4E0FF04C0B1
:1012FA003196691F791F6BF050E8572711F45F93F5
:10130A00CFC05F3F31F0660F000C57956795752F78
:10131A0008955F9300200AF0CFC0C8C050E8192E84
:10132A001522880F991F9527550F879550E8072E84
:10133A000522660F771F7527550F679508956894DC
:10134A0001C0E8945F93F2DF703818F07F3F08F429
:10135A00A7C056E1571BAAF4519558300EF45930DC
:10136A0030F0EFEFFFEF6FEF7FE777F91AC07727DB
:10137A005523B9F0EE0FFF1F661F771F5A95D1F755
:10138A0010C07727583028F0EF2FF62F672F5850C4
:10139A00F9CF552331F076956795F795E7955A95E4
:1013AA00D1F700200AF453D15F910895689401C0DF
:1013BA00E894309760407040B1F0002426F077231B
:1013CA0012F4009444D1172E7EE1112032F07A955E
:1013DA00EE0FFF1F661F111CF9CFEF2FF62F612D9D
:1013EA005F938ADF5F9108954F93AF01FD01DA01A0
:1013FA00AB01BC01CA01402D012C142E4F91089556
:10140A00EA0FFB1F681F0895E095F0956095EF5F5E
:10141A00FF4F6F4F08955F9381DF903871F150E865
:10142A00152604C05F937ADF903839F1703821F1BC
:10143A00572F591B2BF112F4D7DFFACF583118F076
:10144A00AA27BB278827583028F0AB2FB82F882720
:10145A005850F9CF552329F08695B795A7955A95EF
:10146A00D9F7502D512572F0CBDF38F46795F795EF
:10147A00E795739513F420C0B7DF3EDF5F910895B7
:10148A00D8F7FBCFEA1BFB0B680B51F010F4009462
:10149A00BBDF662392F3EE0FFF1F661F7A95CBF729
:1014AA00EE27FF27662777275F910895EFEFFFEF73
:1014BA006FE77FEF5F910895EFEFFFEF6FE77FE749
:1014CA005F9108955F932ADF703851F3903841F3A2
:1014DA0001240894791F23F41CF300203AF3ECCF7B
:1014EA000F921F932F933F934F93112722279927E8
:1014FA00689FA0018F9F302D410D591F6B9F300DA2
:10150A00411D591F8E9F27D0BF9F25D06A9F23D088
:10151A00BE9F1DD0AF9F1BD0AE9F110D291F391F33
:10152A00491F591FE32FF42F652F522F4F913F91D7
:10153A002F911F910F9066232AF0550FEE1FFF1F60
:10154A00661F02C073954BF2CDDE5F910895100DB0
:10155A00211D391F02C0200D311D491F591F089531
:10156A005F93DCDE703821F411200AF49FCFA4CFF8
:10157A00903809F495CF01240894970B1BF4D4F3FF
:10158A000020F3CF792F1F932F933F934F9311246A
:10159A001127222733274427552790E2AE17BF0782
:1015AA008607410730F0AE1BBF0B860B410B089430
:1015BA0001C08894551F221F331F111CAA1FBB1F6D
:1015CA00881F441F9A9551F7F901612D4F913F9158
:1015DA002F911F91662332F0550FEE1FFF1F661FD2
:1015EA007A9543F27FDE5F91089599239AF07723E3
:1015FA0042F0971748F029F4AE17BF07860720F084
:10160A0031F09894889408959894089408951894B9
:10161A00889408957723C2F7971798F3A9F7EA17DA
:10162A00FB07680788F399F3ECCF0024AF0DB01DD0
:10163A000895EA0FFB1F681F791F0895EA1BFB0B29
:10164A00680B790B0895F195E195F0400895F095AE
:10165A0060957095E195FF4F6F4F7F4F0895EE0F9C
:10166A00FF1FEE0FFF1F0895F595E795F595E7958E
:10167A00F595E79508956F2F660F660B762F0895F7
:10168A008B2F880F880B982F0895FA9FF02DEB9FC8
:10169A00F00DEA9FE02DF10D089542D0F6DF0EF429
:1016AA00D2DF08953F934F935F9300241124442778
:1016BA00552730E2AA0FBB1F881F991F001C111C57
:1016CA00441F551F0E1A1F0A460B570B28F40E0EFD
:1016DA001F1E461F571F01C0A1603A9559F7FD0109
:1016EA00BC01D001CA015F914F913F91089526D064
:1016FA00D9DF0EF4ACDF0895E89497FF09C0A095EE
:10170A00B09580959095AF5FBF4F8F4F9F4F68946C
:10171A0077FD9DDFC7DFFD01BC010EF498DF089558
:10172A00E894F7FF02C08FDF6894B7FF06C0A09560
:10173A00B095119600F8039400FA0895E89477FF9B
:10174A0002C085DF689497FF0BC00024A095B0956E
:10175A00809590951196801D901D00F8039400FACB
:10176A000895ED91FC9111970895ED91FD916D9178
:10177A007D9108957E936E93FE93EE93089505905E
:10178A00F491E02D08950590159065917491F001FA
:10179A000895A591B591859194910895E881F9816B
:1017AA006A817B810895A881B9818A819B81089584
:1017BA00E883F9836A837B8308957A936A93FA9319
:1017CA00EA9308959A938A93BA93AA930895182E3E
:1017DA00862F612D192E972F712D1B2EBF2FF12DBC
:1017EA001A2EAE2FE12D0895129602D0BF0112973C
:1017FA00119602D0FE2F1197E199FECFFF93FFB702
:10180A00F894AEBBBFBBE09AEDB3FFBFFF9108955A
:10181A0007D012960F01FB0103D0F0011297089529
:10182A0007D01196EF93EF2F03D0EF9111970895F8
:10183A00E19B02C0A895FCCF9FB7F894AEBBBFBB93
:10184A00E09A8DB3E81719F0EDBBE29AE19A9FBFCF
:10185A000895309760407040089500240A160B06D8
:10186A00080609060895AE17BF0786079707089561
:10187A005A934A933A932A931A930A9308955D8145
:10188A004C813B812A811981088108950991199116
:10189A000895AC0FBD1F05900D928A95E1F7089542
:00000001FF
