:100000004EC0FECFFDCFFCCFFBCFFACFF9CFF8CF5C
:10001000F7CFFDC0F5CFF4CFF3CFF2CFF1CFF0CFD4
:10002000EFCFEECFEDCF1027E80364000A00010008
:10003000001000011000010039392032343A363006
:100040003A36300000000000303030303030303090
:1000500000000F00253264202532643A2532643ACC
:100060002532642000204300257800202020000055
:1000700001002D4E414E00494E46000080C0030055
:1000800060016500040063016B000200080052007B
:1000900001006B01700002006F017C000000F89409
:1000A000EE27ECBBF1E0FBBFEBBFE5BFF8E1F1BD34
:1000B000E1BD8DE0A2E0BB27ED938A95E9F780E0F2
:1000C00094E0A0E6ED930197E9F7EEE7F0E0859183
:1000D0009591009761F0A591B59105901590BF019C
:1000E000F00105900D920197E1F7FB01F0CFEFE5EC
:1000F000EDBFE4E0EEBFC0E6D1E0D3C0649780E19D
:10010000A0E0B0E0E8E3F0E054D742D7E091670127
:10011000F091680125D4E88FF98F2AD421D4AF015A
:1001200027D4EE8BFF8B2AD4AED69F0127D4A6D638
:10013000EE8BFF8B0E891F89A6E0B0E0F8D6DF01B9
:10014000F30121D423D47F936F93FF93EF93A8E01F
:10015000B0E0EDD60F01A4E0B0E01BD4AF91BF91A9
:100160008F919F9113D4A8D57F936F93FF93EF93B3
:10017000AAE0B0E0DCD60F01A6E0B0E00AD406D4D5
:10018000AF91BF918F919F91E5D57F936F93FF932F
:10019000EF93A4E0B0E0CBD6AF91BF918F919F9148
:1001A000F5D3B8D632D5EA8BFB8B6C8B7D8BFE01F9
:1001B0003696F3D3E4E5F0E0F0D3F801F1D3F9019A
:1001C000EFD3FA01EDD3E8A5F9A5EAD380E126D271
:1001D0006496E0E0EA93A0E0FCD2DE01169624D318
:1001E000EA89FB896C897D898BD6E2E0EA93DE019E
:1001F0001B963DD2DE01169617D3A0E6B1E014D3CC
:10020000E0E0EA93A1E0E5D2CAD66A9608956A933F
:100210007A93AA93BA93EA93FA93EFB7EA93F20127
:1002200031962F01E2E1F0E0E415F5055CF4F2010E
:1002300072972F01A7E6B1E046D6EF5FFF4F6F4FF1
:100240007F4F46D6E7E2E2BFE991EFBFF991E9912E
:10025000B991A991799169911895AA93E881E0647F
:10026000E7B98DE08A95F1F7369A349BFECF349A40
:10027000E4B1F5B110C390D610E0E3B394D3DFD569
:10028000E095EF700E2FF401A02F8FD3EA17FB0734
:1002900011F410E001C0102F802E9924E12F86D692
:1002A000089500E010E0A0E0B0E0E0E0F0E060E001
:1002B00070E04DD6A4E0B0E052D6A6E0B0E04FD654
:1002C000A8E0B0E0E4EFF1E04AD6AAE0B0E0E0E078
:1002D000F4E045D6E8BBE7EFE7BBE8E7E5BBE0E0E5
:1002E000E4BBE2BBEFEFE1BBE5E0E3BFE7E2E2BF87
:1002F000E0E0EFBDEEBDEDBDECBDE7BDE6BDEBBDA5
:10030000EABDE9BDE8BDE2BDE5BDE4BDE3BDE5BFD5
:10031000E1E0E9BFE0E0EAB9E0E8E8B9E0E0E0BF49
:10032000E0E4E7B9E2E8E6B9E0E0EDB9E6BFA0E273
:100330008BD25CD2AFE041D278942B9789E0A0E0D9
:10034000B0E0E8E4F0E035D6A0E087DF3F01909B25
:1003500002C0909801C0909AF801309709F4CEDE5F
:100360008ADF21D3E987FA87FE0117D3E8E6F0E0B8
:1003700014D3ED85FE8514D384E050D12896EAE0AD
:10038000EA93A1E026D2DE014FD2A3E6B1E04CD23F
:10039000A4EFB1E091D32B96D0CFFFCF08D3FCD5FB
:1003A00009D312968CD53097F1F004D306D38F0180
:1003B000309761F00230E0E01E07A0F0F8013197BD
:1003C0008F01AA81BB811496ED93FC93F3D2129610
:1003D000F7D23197AC81A083EDD271D5FF2312F013
:1003E000E9D2EED205C0E6D2EFEFFFEFED93FC933A
:1003F000DAD525960895DBD22697CAD510E0AC85CC
:10040000BD85E0E0F0E0ED93FC93EA89FB8931964D
:10041000EA8BFB8B3197E4912E2FE03009F4F8C082
:10042000E12FE03031F4253211F411E001C0CED2D9
:10043000EEC0E130A1F4253211F4C8D2E7C012E0D9
:1004400040E000E02D3211F401E0E1C02B3211F464
:100450004BE2DDC0203211F440E2D9C002C0E230EC
:1004600039F450E013E0203311F40068D0C003C029
:10047000E33009F0CCC0203310F02A3308F007C075
:10048000AAE05A9F502DE22FE0535E0FC0C0E22F2A
:10049000E33639F4A2D2A4D2A0D2A481AA93A4D2E2
:1004A000B5C0E33731F4A6D2A7D2A9D202D21E2F0B
:1004B00008C0E03751F49ED29FD2A1D205D21E2FA0
:1004C000086002600F7730E02EC0E43611F0E936A4
:1004D00011F4046002C0E53729F4E6E2F0E094D2BA
:1004E00015E00BC0E83511F4086003C0E83709F0E7
:1004F0008DC0E0E3F0E088D214E002FF11C07AD2B0
:100500007BD285D2AB85AA232AF4EA85FB858BD4DE
:100510007ED24DE2403011F01F5F01C00B7F03C05F
:1005200069D26AD274D200FD10C0151770F407FFAB
:1005300008C002FF04C00B7F242F115001C020E32C
:1005400001C020E243D25150F0CF312F01FF12C041
:10055000303079F003FF04C05DD2259155D203C03D
:100560005CD22D915DD232D2503009F051503150D1
:10057000EFCF43C020E34ED2B0D4E887F9874AD208
:10058000329642D2E885F985AA85BB85AE17BF07AA
:1005900040F02F5FA885B985EA85FB85F4D137D275
:1005A000F1CF2A3328F003FF02C0295F01C0295D83
:1005B00004FD19C0213320F4A885B985119709F4E9
:1005C00009C0531710F000FF01C011C020E207FF5F
:1005D0000AC020E3006102FF06C00B7F4A9304D2E9
:1005E000503009F05150F2D1503009F05150315093
:1005F000A885B985129708F0BDCF00FF07C050301D
:1006000029F05150E0E2EA93EFD1F9CF10E0FDCEAE
:10061000AC85BD8554D4C3D464960895FF92F82E5A
:100620002697B8D400D2309719F4EFEFFFEF1BC034
:10063000DE011696F4D38D01F6D1E6D1E0E0E8872D
:10064000E987DE011A96EBD33AD4A7D11A930A931D
:10065000EEECF1E0A2D1DE011A96CDDE9F01DDD1F4
:10066000E0E0EC93F9019DD42A96FF9008959FD184
:100670002497E0E0E883E983EA83EFE3EB838CD41B
:10068000EB85FC85EF3FAFEFFA0731F4C3D185D19D
:10069000A2E7B0E002D17AC0EF3FAFE7FA0731F44A
:1006A000B9D17BD1A3E7B0E0F8D070C0AC85AA2364
:1006B00032F4BED10BD2C1D1C5D1EDE2EC93A88505
:1006C000A73010F0E6E0E8871885E12F1150E03000
:1006D00021F0BDD1C1D1C6D1F8CFC9D19DD2ADD104
:1006E00010E0E0E0F0E060E87FE3BCD1C0D177D378
:1006F00068F0ADD1C5D1B6D11F5F173230F08AD1C5
:100700004CD1A7E7B0E0C9D041C0F0CF103021F400
:1007100099D1E0E3EC931DC0E12F1150E030C9F016
:1007200096D19AD1A0E0B0E080E09FE375D2DF01DE
:10073000CB0106D197D19BD10DD3FBD10E2F82D106
:10074000A5D185D123D1B8D2A6D1E4D35ED275D1BB
:10075000E3CFE885E030B1F075D1EEE2EC93E885C7
:10076000E150E887EF5F71F096D18AD166D160D110
:10077000E0D10E2F67D18AD18ED108D1CBD345D20B
:100780005CD1EDCFAE81BF81E0E0EC930CD42D962F
:100790000895AA93E8B3EF70AE2FE881E07FEA2BCB
:1007A000E8BB83E08A95F1F7C29A87E08A95F1F772
:1007B000C29887E08A95F1F76EC0AA93A881E9DF15
:1007C000E881E295E883A881E4DF83E48A95F1F784
:1007D00062C0AA93E881E7D0E159FE4FE081A98188
:1007E000AE0FEBDFB980A88022960895A2E058D121
:1007F000ACE0E3DFA1E054D1E0E0AE2EBE2E0895E0
:10080000AA93A881AA3011F0BD1440F0E0E0EA9369
:10081000A394AA2DDEDFA881AA30E9F1B394C09A8F
:10082000A881CBDFC09837C0C2D01A93A981BA8102
:10083000ED91A983BA831E2FE03019F0A12FE0DFDC
:10084000F5CF188123960895AA93E7B3E06FE7BB2D
:10085000BA9AB89AB99AC298C098C198D880E881D3
:10086000E058E0937101E881E054E0937201A4E163
:100870009CD022D119D118D117D1A0E28ADF85E806
:100880008A95F1F7A8E299DFA4E097DFA5E895DF64
:10089000A6E093DFABDF2196089589D0E991F99125
:1008A000A991B991CD0105900D920020E1F7FC01CD
:1008B00008957DD0A991B991EE27FF276D91662308
:1008C00011F03196FBCF089572D0AA27BB27E9918A
:1008D000F9910590002011F01196FBCFFD010895CC
:1008E00014D37B816A81F981E88177FB770F67FDFB
:1008F0007160972F9E5781F078F0983190F4AA2775
:10090000BB27882708948795B795A7959A95D1F71F
:10091000EA23FB23682305C0E8947727EE27FF2707
:1009200066276F77769508F4606877F9A991B99191
:1009300089919991EA17FB076807790797FB089552
:10094000E4D2D4D2CDDFD7D211F4B4D007C0EEF7C1
:10095000B1D0A0E0B0E080E89FE357D1249608959D
:10096000EE8BFF8BAE89BF89ECE3F0E08CD208956B
:10097000AE89BF89ECE3F0E081D20895AE89BF89EA
:10098000E8E1F0E00895EA1BFB0B08955FD20AD17D
:100990000895CDD2DF01F001F6CFFA93EA930895DE
:1009A00055D2AED20895F0E00895B0E00895BA931C
:1009B000AA930895AA81BB810895149680D20895C0
:1009C000ED91FD913196FE93EE9308952A93AD85B6
:1009D000BE85EF85F88909950895E889F989089514
:1009E0003497E88BF98B0895AD85BE85EF85F8893E
:1009F00009950895F2DFF4CFA889B989DECFEE8397
:100A0000FF83AE81BF810895EE83FF830895EA8757
:100A1000FB870895EE81FF810895AE81BF8108951F
:100A2000AE83BF830895DE011C96F9D148D20895A4
:100A3000E985FA856B857C850895E987FA876B8758
:100A40007C870895EADF1196EBDF11970895AA815C
:100A5000BB818C819D810895EDECFCEC6CEC7DE319
:100A60002BD10895EA83FB836C837D830895EA810B
:100A7000FB816C817D81A985BA858B859C850895D4
:100A8000E0E0F0E060E271E417D10895E02FE05D6E
:100A9000EC93E02F88CFA985BA858B859C85089536
:100AA0008CDEA3E082DF08C0A0E373DE85E88A95D0
:100AB000F1F7089516D20895109639F088EE93E074
:100AC0000197F1F7A8951197C9F7089530976040FD
:100AD000704009F070580895552342F4503811F4CD
:100AE000E0FF04C03196691F791F6BF050E857276B
:100AF00011F45F93CFC05F3F31F0660F000C579544
:100B00006795752F08955F9300200AF0CFC0C8C085
:100B100050E8192E1522880F991F9527550F879594
:100B200050E8072E0522660F771F7527550F67952A
:100B30000895689401C0E8945F93F2DF703818F06C
:100B40007F3F08F4A7C056E1571BAAF451955830CF
:100B50000EF4593030F0EFEFFFEF6FEF7FE777F9EA
:100B60001AC077275523B9F0EE0FFF1F661F771FB6
:100B70005A95D1F710C07727583028F0EF2FF62F6D
:100B8000672F5850F9CF552331F076956795F79533
:100B9000E7955A95D1F700200AF449D15F9108955D
:100BA000689401C0E894309760407040B1F0002430
:100BB00026F0772312F400943AD1172E7EE111200B
:100BC00032F07A95EE0FFF1F661F111CF9CFEF2F41
:100BD000F62F612D5F938ADF5F9108954F93AF01E8
:100BE000FD01DA01AB01BC01CA01402D012C142E1C
:100BF0004F910895EA0FFB1F681F0895E095F09547
:100C00006095EF5FFF4F6F4F08955F9381DF9038DE
:100C100071F150E8152604C05F937ADF903839F1FE
:100C2000703821F1572F591B2BF112F4D7DFFACF6F
:100C3000583118F0AA27BB278827583028F0AB2F47
:100C4000B82F88275850F9CF552329F08695B795A6
:100C5000A7955A95D9F7502D512572F0CBDF38F46E
:100C60006795F795E795739513F420C0B7DF3EDFDE
:100C70005F910895D8F7FBCFEA1BFB0B680B51F08F
:100C800010F40094BBDF662392F3EE0FFF1F661F84
:100C90007A95CBF7EE27FF27662777275F91089590
:100CA000EFEFFFEF6FE77FEF5F910895EFEFFFEF5B
:100CB0006FE77FE75F9108955F932ADF703851F304
:100CC000903841F301240894791F23F41CF3002089
:100CD0003AF3ECCF0F921F932F933F934F9311272B
:100CE00022279927689FA0018F9F302D410D591F02
:100CF0006B9F300D411D591F8E9F27D0BF9F25D060
:100D00006A9F23D0BE9F1DD0AF9F1BD0AE9F110DF9
:100D1000291F391F491F591FE32FF42F652F522F09
:100D20004F913F912F911F910F9066232AF0550FFD
:100D3000EE1FFF1F661F02C073954BF2CDDE5F9161
:100D40000895100D211D391F02C0200D311D491FAE
:100D5000591F08955F93DCDE703821F411200AF4E6
:100D60009FCFA4CF903809F495CF01240894970B16
:100D70001BF4D4F30020F3CF792F1F932F933F93CD
:100D80004F9311241127222733274427552790E218
:100D9000AE17BF078607410730F0AE1BBF0B860BAF
:100DA000410B089401C08894551F221F331F111C4A
:100DB000AA1FBB1F881F441F9A9551F7F901612D87
:100DC0004F913F912F911F91662332F0550FEE1FE7
:100DD000FF1F661F7A9543F27FDE5F910895992386
:100DE0009AF0772342F0971748F029F4AE17BF071F
:100DF000860720F031F09894889408959894089488
:100E000008951894889408957723C2F7971798F354
:100E1000A9F7EA17FB07680788F399F3ECCF0024DA
:100E2000AF0DB01D0895F195E195F0400895F0954E
:100E300060957095E195FF4F6F4F7F4F0895F59541
:100E4000E795F595E795F595E79508956F2F660F6A
:100E5000660B762F08950024112490E1AA0FBB1F82
:100E6000001C111C0E1A1F0A18F40E0E1F1E01C0C2
:100E7000A1609A9599F7FD01D001089512D0EBDF9A
:100E80000EF4D1DF0895E894B7FF04C0A095B095A3
:100E900011966894F7FDC7DFDEDFFD010EF4C3DFB6
:100EA0000895E894F7FF02C0BEDF6894B7FF06C05C
:100EB000A095B095119600F8039400FA0895ED916D
:100EC000FC9111970895ED91FD916D917D9108959B
:100ED0007E936E93FE93EE9308950590F491E02D2A
:100EE0000895E881F9816A817B810895A881B9819B
:100EF0008A819B810895E883F9836A837B830895BF
:100F00007A936A93FA93EA9308959A938A93BA9399
:100F1000AA930895182E862F612D192E972F712DC3
:100F20001B2EBF2FF12D1A2EAE2FE12D08951196F5
:100F300002D0FE2F1197E199FECFFF93FFB7F894EF
:100F4000AEBBBFBBE09AEDB3FFBFFF91089507D0E2
:100F500012960F01FB0103D0F0011297089507D0FC
:100F60001196EF93EF2F03D0EF9111970895E19B26
:100F700002C0A895FCCF9FB7F894AEBBBFBBE09A68
:100F80008DB3E81719F0EDBBE29AE19A9FBF08957F
:100F90005A934A933A932A931A930A9308955D8138
:100FA0004C813B812A811981088108950991199109
:100FB0000895AC0FBD1F05900D928A95E1F7089535
:00000001FF
