:0200000035C009
:10000200FECFFDCFFCCFFBCFFACFF9CFF8CFF7CFA2
:100012005BC0F5CFF4CFF3CFF2CFF1CFF0CFEFCF7C
:10002200EECFEDCFFF8E84808080808080FF8E8433
:10003200808080808080FF8E84808080808080FFAE
:100042008E84808080808080FF8E8480000000000B
:100052000000000053414C414D0080C00600600189
:100062005600020066015C000000F894EE27ECBB2B
:10007200F1E0FBBFEBBFE5BFF8E1F1BDE1BD8DE013
:10008200A2E0BB27ED938A95E9F780E094E0A0E631
:10009200ED930197E9F7EEE5F0E0859195910097F0
:1000A20061F0A591B59105901590BF01F001059001
:1000B2000D920197E1F7FB01F0CFEFE5EDBFE4E030
:1000C200EEBFC0E6D1E01FC0EA93E7E2E2BFE991EA
:1000D2001895AA933FD1EA81EE0FEE0FEE0FE0647E
:1000E2000E2F10E0183060F40A930395EC81FD8125
:1000F2003196EC83FD833197A49180D01F5FF2CFBC
:100102002CD125960895E0E0E8BBE7EFE7BBE0E0FD
:10011200E5BBE4BBE2BBE1BBE5E0E3BFE7E2E2BF94
:10012200E0E0EFBDEEBDEDBDECBDE7BDE6BDEBBD74
:10013200EABDE9BDE8BDE2BDE5BDE4BDE3BDE5BFA5
:10014200E1E0E9BFE0E0EAB9E0E8E8B9E0E0E0BF19
:10015200E0E4E7B9E2E8E6B9E0E0EDB9E6BFA0E243
:100162008BD05ED0789400E010E00032E0E01E0711
:1001720074F4D801E6E0F0E0DFD0C4D0EA5DFF4FCE
:10018200FA93EA93A02FA5DF0F5F1F4FEECFE0E0B7
:10019200EA93A0E038D0A0E6B1E05DD000E010E044
:1001A2000436E0E01E072CF4A02F44D00F5F1F4F4F
:1001B200F7CFA8EEB3E098D0EACFFFCFAA93E8B387
:1001C200EF70AE2FE881E07FEA2BE8BB83E08A95EF
:1001D200F1F7C29A87E08A95F1F7C29887E08A958B
:1001E200F1F771C0AA93A881E9DFE881E295E8837B
:1001F200A881E4DF83E48A95F1F765C0AA93A98117
:10020200F1DF63D00BC0AA93E881F0E0EA59FE4F18
:10021200E081A981AE0FE6DF5980488022960895D9
:10022200A2E058D0ACE0DEDFA1E054D0E0E04E2EF8
:100232005E2E0895AA93A881AA3011F0571440F0B7
:10024200E0E0EA934394A42DDEDFA881AA30D9F13D
:1002520053943BD038C0BA93AA931A93A981BA8116
:10026200ED91A983BA831E2FE03019F0A12FE2DFAE
:10027200F5CF188123960895AA93E7B3E06FE7BB01
:10028200BA9AB89AB99AC298C098C1987880E88107
:10029200E058E0936801E881E054E0936901A4E149
:1002A200B0E022D01BD01AD019D0A0E287DF85E8B7
:1002B2008A95F1F7A8E296DFA4E094DFA5E892DF41
:1002C200A6E090DFADDF21960895C09AA8818ADF6B
:1002D200C098089587DFA3E0B0E006C0A0E36EDF18
:1002E20085E88A95F1F70895109639F088EE93E043
:1002F2000197F1F7A8951197C9F70895F195E1953E
:10030200F0400895EE0FFF1FEE0FFF1FEE0FFF1FCD
:1003120008950024112490E1AA0FBB1F001C111C98
:100322000E1A1F0A18F40E0E1F1E01C0A1609A9524
:1003320099F7FD01D0010895E894B7FF04C0A09594
:10034200B09511966894F7FDD9DFE3DFFD010EF455
:10035200D5DF08951A930A930895198108810895A3
:00000001FF
